{"abi":[{"type":"constructor","inputs":[{"name":"_creditScoreNFT","type":"address","internalType":"address"},{"name":"_usdc","type":"address","internalType":"address"},{"name":"_chainlinkEthUsd","type":"address","internalType":"address"},{"name":"_zkVerifier","type":"address","internalType":"address"},{"name":"_owner","type":"address","internalType":"address"}],"stateMutability":"nonpayable"},{"type":"receive","stateMutability":"payable"},{"type":"function","name":"BASIS_POINTS","inputs":[],"outputs":[{"name":"","type":"uint256","internalType":"uint256"}],"stateMutability":"view"},{"type":"function","name":"LIQUIDATION_BONUS_BPS","inputs":[],"outputs":[{"name":"","type":"uint256","internalType":"uint256"}],"stateMutability":"view"},{"type":"function","name":"LOAN_DURATION","inputs":[],"outputs":[{"name":"","type":"uint64","internalType":"uint64"}],"stateMutability":"view"},{"type":"function","name":"SECONDS_PER_YEAR","inputs":[],"outputs":[{"name":"","type":"uint256","internalType":"uint256"}],"stateMutability":"view"},{"type":"function","name":"borrow","inputs":[{"name":"usdcAmount","type":"uint256","internalType":"uint256"},{"name":"zkProof","type":"bytes","internalType":"bytes"},{"name":"","type":"uint256","internalType":"uint256"}],"outputs":[],"stateMutability":"payable"},{"type":"function","name":"borrowerLoans","inputs":[{"name":"","type":"address","internalType":"address"},{"name":"","type":"uint256","internalType":"uint256"}],"outputs":[{"name":"","type":"uint256","internalType":"uint256"}],"stateMutability":"view"},{"type":"function","name":"chainlinkEthUsd","inputs":[],"outputs":[{"name":"","type":"address","internalType":"contract AggregatorV3Interface"}],"stateMutability":"view"},{"type":"function","name":"creditScoreNFT","inputs":[],"outputs":[{"name":"","type":"address","internalType":"contract ICreditScoreNFT"}],"stateMutability":"view"},{"type":"function","name":"getAccruedInterest","inputs":[{"name":"loanId","type":"uint256","internalType":"uint256"}],"outputs":[{"name":"","type":"uint256","internalType":"uint256"}],"stateMutability":"view"},{"type":"function","name":"getBorrowerLoans","inputs":[{"name":"borrower","type":"address","internalType":"address"}],"outputs":[{"name":"","type":"uint256[]","internalType":"uint256[]"}],"stateMutability":"view"},{"type":"function","name":"getHealthFactor","inputs":[{"name":"loanId","type":"uint256","internalType":"uint256"}],"outputs":[{"name":"","type":"uint256","internalType":"uint256"}],"stateMutability":"view"},{"type":"function","name":"getLoan","inputs":[{"name":"loanId","type":"uint256","internalType":"uint256"}],"outputs":[{"name":"","type":"tuple","internalType":"struct ICreditLendingPool.LoanPosition","components":[{"name":"id","type":"uint256","internalType":"uint256"},{"name":"borrower","type":"address","internalType":"address"},{"name":"principal","type":"uint256","internalType":"uint256"},{"name":"collateral","type":"uint256","internalType":"uint256"},{"name":"collateralRatio","type":"uint256","internalType":"uint256"},{"name":"openedAt","type":"uint64","internalType":"uint64"},{"name":"dueAt","type":"uint64","internalType":"uint64"},{"name":"status","type":"uint8","internalType":"enum ICreditLendingPool.LoanStatus"},{"name":"interestRateBps","type":"uint16","internalType":"uint16"},{"name":"interestAccrued","type":"uint256","internalType":"uint256"}]}],"stateMutability":"view"},{"type":"function","name":"liquidate","inputs":[{"name":"loanId","type":"uint256","internalType":"uint256"}],"outputs":[],"stateMutability":"nonpayable"},{"type":"function","name":"loans","inputs":[{"name":"","type":"uint256","internalType":"uint256"}],"outputs":[{"name":"id","type":"uint256","internalType":"uint256"},{"name":"borrower","type":"address","internalType":"address"},{"name":"principal","type":"uint256","internalType":"uint256"},{"name":"collateral","type":"uint256","internalType":"uint256"},{"name":"collateralRatio","type":"uint256","internalType":"uint256"},{"name":"openedAt","type":"uint64","internalType":"uint64"},{"name":"dueAt","type":"uint64","internalType":"uint64"},{"name":"status","type":"uint8","internalType":"enum ICreditLendingPool.LoanStatus"},{"name":"interestRateBps","type":"uint16","internalType":"uint16"},{"name":"interestAccrued","type":"uint256","internalType":"uint256"}],"stateMutability":"view"},{"type":"function","name":"nextLoanId","inputs":[],"outputs":[{"name":"","type":"uint256","internalType":"uint256"}],"stateMutability":"view"},{"type":"function","name":"owner","inputs":[],"outputs":[{"name":"","type":"address","internalType":"address"}],"stateMutability":"view"},{"type":"function","name":"renounceOwnership","inputs":[],"outputs":[],"stateMutability":"nonpayable"},{"type":"function","name":"repay","inputs":[{"name":"loanId","type":"uint256","internalType":"uint256"}],"outputs":[],"stateMutability":"nonpayable"},{"type":"function","name":"rescueERC20","inputs":[{"name":"token","type":"address","internalType":"address"},{"name":"to","type":"address","internalType":"address"},{"name":"amount","type":"uint256","internalType":"uint256"}],"outputs":[],"stateMutability":"nonpayable"},{"type":"function","name":"setChainlinkFeed","inputs":[{"name":"newFeed","type":"address","internalType":"address"}],"outputs":[],"stateMutability":"nonpayable"},{"type":"function","name":"setZKVerifier","inputs":[{"name":"newVerifier","type":"address","internalType":"address"}],"outputs":[],"stateMutability":"nonpayable"},{"type":"function","name":"transferOwnership","inputs":[{"name":"newOwner","type":"address","internalType":"address"}],"outputs":[],"stateMutability":"nonpayable"},{"type":"function","name":"usdc","inputs":[],"outputs":[{"name":"","type":"address","internalType":"contract IERC20"}],"stateMutability":"view"},{"type":"function","name":"zkVerifier","inputs":[],"outputs":[{"name":"","type":"address","internalType":"address"}],"stateMutability":"view"},{"type":"event","name":"CollateralDeposited","inputs":[{"name":"loanId","type":"uint256","indexed":true,"internalType":"uint256"},{"name":"amount","type":"uint256","indexed":false,"internalType":"uint256"}],"anonymous":false},{"type":"event","name":"LoanLiquidated","inputs":[{"name":"loanId","type":"uint256","indexed":true,"internalType":"uint256"},{"name":"liquidator","type":"address","indexed":true,"internalType":"address"},{"name":"collateralSeized","type":"uint256","indexed":false,"internalType":"uint256"},{"name":"bonus","type":"uint256","indexed":false,"internalType":"uint256"}],"anonymous":false},{"type":"event","name":"LoanOpened","inputs":[{"name":"loanId","type":"uint256","indexed":true,"internalType":"uint256"},{"name":"borrower","type":"address","indexed":true,"internalType":"address"},{"name":"principal","type":"uint256","indexed":false,"internalType":"uint256"},{"name":"collateral","type":"uint256","indexed":false,"internalType":"uint256"},{"name":"interestRateBps","type":"uint16","indexed":false,"internalType":"uint16"}],"anonymous":false},{"type":"event","name":"LoanRepaid","inputs":[{"name":"loanId","type":"uint256","indexed":true,"internalType":"uint256"},{"name":"borrower","type":"address","indexed":true,"internalType":"address"},{"name":"principal","type":"uint256","indexed":false,"internalType":"uint256"},{"name":"interest","type":"uint256","indexed":false,"internalType":"uint256"}],"anonymous":false},{"type":"event","name":"OwnershipTransferred","inputs":[{"name":"previousOwner","type":"address","indexed":true,"internalType":"address"},{"name":"newOwner","type":"address","indexed":true,"internalType":"address"}],"anonymous":false},{"type":"error","name":"CollateralTooLow","inputs":[{"name":"required","type":"uint256","internalType":"uint256"},{"name":"provided","type":"uint256","internalType":"uint256"}]},{"type":"error","name":"HealthFactorTooLow","inputs":[{"name":"healthFactor","type":"uint256","internalType":"uint256"}]},{"type":"error","name":"InsufficientScore","inputs":[{"name":"required","type":"uint16","internalType":"uint16"},{"name":"actual","type":"uint16","internalType":"uint16"}]},{"type":"error","name":"InvalidChainlinkPrice","inputs":[]},{"type":"error","name":"InvalidZKProof","inputs":[]},{"type":"error","name":"LoanAlreadyRepaid","inputs":[{"name":"loanId","type":"uint256","internalType":"uint256"}]},{"type":"error","name":"LoanNotActive","inputs":[]},{"type":"error","name":"OnlyBorrower","inputs":[]},{"type":"error","name":"OwnableInvalidOwner","inputs":[{"name":"owner","type":"address","internalType":"address"}]},{"type":"error","name":"OwnableUnauthorizedAccount","inputs":[{"name":"account","type":"address","internalType":"address"}]},{"type":"error","name":"ReentrancyGuardReentrantCall","inputs":[]},{"type":"error","name":"SafeERC20FailedOperation","inputs":[{"name":"token","type":"address","internalType":"address"}]}],"bytecode":{"object":"0x60c034620002a957601f6200198638819003918201601f191683019291906001600160401b03841183851017620002ad578160a09284926040968752833981010312620002a9576200005181620002e1565b9060209062000062828201620002e1565b9062000070858201620002e1565b6200008c60806200008460608501620002e1565b9301620002e1565b60017f9b779b17422d0df92223018b32b4d1fa46e071723d6817e2486d003becc55f00819055956001600160a01b0391821695919491861562000292575f80546001600160a01b03198082168a1783559888969594939290918716907f8be0079c531659141344cd1fd0a4f28419497f9722a3daafe3b4186f6b6457e09080a362000116620002c1565b61012c81526102589081838201526103208c8201525f905f5b8c6003821062000252579150505562000147620002c1565b6134bc81526130d483820152612cec8c8201528a5f5b60038110620002375750505062000173620002c1565b906104b08252610384838301528b8201525f915f905b8b60038310620001fa57505050508492918391600555166080521660a0521683600654161760065516906007541617600755600a555161168f9081620002f782396080518181816103f00152610d40015260a0518181816108b501528181610b1101528181610bed0152610fdd0152f35b9193839596979850620002269061ffff839551169086851b60031b9161ffff809116831b921b19161790565b940192018896959493929162000189565b825161ffff1660028201558a9850918401918c91016200015d565b9193949596979850916200027f869161ffff8651169085851b60031b9161ffff809116831b921b19161790565b930191019089979695949392916200012f565b8851631e4fbdf760e01b81525f6004820152602490fd5b5f80fd5b634e487b7160e01b5f52604160045260245ffd5b60405190606082016001600160401b03811183821017620002ad57604052565b51906001600160a01b0382168203620002a95756fe608060405260048036101561001c575b50361561001a575f80fd5b005b5f3560e01c806315ad794614610ccf57806317845c6914610cb1578063371fd8e614610b405780633e413bee14610afc578063415f12401461079f578063504006ca146105fa578063715018a6146105a357806387c51459146105865780638da5cb5b1461055f5780638ea121a31461051c578063923d70ce146104f45780639339ea69146104ce578063b2118a8d1461048a578063c509034614610447578063d6df096d1461041f578063dd3c3d90146103db578063e02a4dfd146103be578063e1ec3c6814610311578063e1f1c4a7146102f5578063e3ed19021461029e578063e6a69ab814610280578063ecd1dae614610264578063eee8b7ff146101b65763f2fde38b0361000f57346101b25760203660031901126101b257610141611220565b61014961160e565b6001600160a01b0390811691821561019b57505f54826bffffffffffffffffffffffff60a01b8216175f55167f8be0079c531659141344cd1fd0a4f28419497f9722a3daafe3b4186f6b6457e05f80a3005b6024905f60405191631e4fbdf760e01b8352820152fd5b5f80fd5b346101b2576020806003193601126101b2576001600160a01b036101d8611220565b165f526009815260405f20604051908183825491828152019081925f52845f20905f5b8682821061025057868661021182880383611290565b60405192839281840190828552518091526040840192915f5b82811061023957505050500390f35b83518552869550938101939281019260010161022a565b8354855290930192600192830192016101fb565b346101b2575f3660031901126101b25760206040516101f48152f35b346101b2575f3660031901126101b25760206040516301e133808152f35b346101b25760403660031901126101b2576102b7611220565b6001600160a01b03165f908152600960205260409020805460243591908210156101b2576020916102e791611236565b90546040519160031b1c8152f35b346101b2575f3660031901126101b25760206040516127108152f35b50346101b25760203660031901126101b2578061014091355f52600860205260405f2061ffff81549260018060a01b036001840154169260028101549160038201549082015490600583015493600667ffffffffffffffff94015496604051988952602089015260408801526060870152608086015280821660a08601528160401c1660c08501526103ac60e0850160ff8360801c166111ff565b60881c16610100830152610120820152f35b346101b2575f3660031901126101b257602060405162278d008152f35b346101b2575f3660031901126101b2576040517f00000000000000000000000000000000000000000000000000000000000000006001600160a01b03168152602090f35b346101b2575f3660031901126101b2576007546040516001600160a01b039091168152602090f35b346101b25760203660031901126101b257610460611220565b61046861160e565b600780546001600160a01b0319166001600160a01b0392909216919091179055005b346101b25760603660031901126101b2576104a3611220565b6001600160a01b039060243582811681036101b25761001a926104c461160e565b6044359216611526565b50346101b25760203660031901126101b2576104ec602091356113d7565b604051908152f35b346101b2575f3660031901126101b2576006546040516001600160a01b039091168152602090f35b346101b25760203660031901126101b257610535611220565b61053d61160e565b600680546001600160a01b0319166001600160a01b0392909216919091179055005b346101b2575f3660031901126101b2575f546040516001600160a01b039091168152602090f35b346101b2575f3660031901126101b2576020600a54604051908152f35b346101b2575f3660031901126101b2576105bb61160e565b5f80546001600160a01b0319811682556001600160a01b03167f8be0079c531659141344cd1fd0a4f28419497f9722a3daafe3b4186f6b6457e08280a3005b50346101b25760203660031901126101b2575f61012060405161061c8161125f565b8281528260208201528260408201528260608201528260808201528260a08201528260c08201528260e082015282610100820152015280355f52600860205260405f20906040519061066d8261125f565b8254825260018060a01b036001840154166020830152600283015460408301526003830154606083015280830154608083015260058301549067ffffffffffffffff821660a084015267ffffffffffffffff8260401c1660c084015260ff8260801c1690600382101561078c57509261ffff6006926101409560e086015260881c166101008401520154610120820152610120604051918051835260018060a01b03602082015116602084015260408101516040840152606081015160608401526080810151608084015267ffffffffffffffff60a08201511660a084015267ffffffffffffffff60c08201511660c084015261077260e082015160e08501906111ff565b61ffff610100820151166101008401520151610120820152f35b602190634e487b7160e01b5f525260245ffd5b50346101b25760203660031901126101b25780356107bb611441565b805f52600860205260405f20600581019283549160ff8360801c166003811015610ae95760018114610ad157600214610ac1576107f78461131e565b670de0b6b3a7640000811015610aaa5750610811846113d7565b90610820826002830154611311565b600382018054976101f496878a02958a870489148b151715610a9757612710809704988b61084c611487565b9868056bc75e2d63100000998a61086382856112e0565b049a5f9b858b028b810487148c151715610a845784900490610885828d611311565b81116109f0575b50505050506006880192909255505060ff60801b1916600160811b1790555f90556108d99030337f00000000000000000000000000000000000000000000000000000000000000006115a4565b5f80808089335af16108e9611398565b50156109ac578161093c575b50505060405192835260208301527fd1b144c94c58ceab69737edeed9e57e7a7bf0e63c3232da2b7c1e65d7ab7f3d060403393a360015f8051602061163a83398151915255005b600101545f918291829182916001600160a01b03165af161095b611398565b50156109685780806108f5565b60649060206040519162461bcd60e51b8352820152601a60248201527f426f72726f776572204554482072657475726e206661696c65640000000000006044820152fd5b60405162461bcd60e51b8152602081850152601e60248201527f4c697175696461746f7220455448207472616e73666572206661696c656400006044820152606490fd5b906109fe8c610a03936112bf565b6112bf565b818102918183041490151715610a715790610a1d916112f3565b828110610a2d575b80808061088c565b919950929a50610a40919c5080986112bf565b9a808c02908c8204148c151715610a5e570497815f6108d981610a25565b601189634e487b7160e01b5f525260245ffd5b60118d634e487b7160e01b5f525260245ffd5b60118f634e487b7160e01b5f525260245ffd5b601188634e487b7160e01b5f525260245ffd5b826024916040519163b8dfb2c160e01b8352820152fd5b50604051630417bc2360e11b8152fd5b60405163dae2c27360e01b8152808401869052602490fd5b602183634e487b7160e01b5f525260245ffd5b346101b2575f3660031901126101b2576040517f00000000000000000000000000000000000000000000000000000000000000006001600160a01b03168152602090f35b50346101b25760203660031901126101b2578035610b5c611441565b805f52600860205260405f2091600583019081549360ff8560801c166003811015610ae95760018114610ad157600214610ac15760018101546001600160a01b03163303610ca1575f80808093610c11610bb5896113d7565b99838b600285019a610bc8828d54611311565b60038701805460069098019390935560ff60801b19909416600160801b1790555530337f00000000000000000000000000000000000000000000000000000000000000006115a4565b335af1610c1c611398565b5015610c695750549160405192835260208301527f553c9087bff5b534e499a66dac3fa9db2962cd252ea01165239755836ae5345e60403393a360015f8051602061163a83398151915255005b60649060206040519162461bcd60e51b83528201526011602482015270115512081c995d1d5c9b8819985a5b1959607a1b6044820152fd5b50604051630ac9915d60e01b8152fd5b50346101b25760203660031901126101b2576104ec6020913561131e565b506060806003193601126101b25781359067ffffffffffffffff90602480358381116101b257366023820112156101b25780860135918483116101b257368184840101116101b257610d1f611441565b604051630d47875d60e41b81523388820152946001600160a01b03858784817f000000000000000000000000000000000000000000000000000000000000000085165afa801561111e575f975f916111a3575b5060ff1696871561117e57505f19938488019780891161105e57600389101561116c57600101546005898c1c015490988b1b60f0161c61ffff1695610dbf610db8611487565b998b6112e0565b9068056bc75e2d63100000928383029280840485149015171561115a5761271092838c02908c820485148d1517156111475790610dfb916112f3565b8034106111295750868d9186600754169081611070575b5050505050610e2b600a549960018b01600a55346112e0565b81810291818304149015171561105e57818a02918a8304148a15171561105e5790610e55916112f3565b908242169262278d0084019281841161104c578a94928a94928d8a938c60405199610e7f8b61125f565b898b5260208b019133835260408c019182528b019134835260808c0193845260a08c01998a528560c08d019916895260e08c01965f88526101008d019889526101208d019b5f8d525f52600860205260405f209c518d5560018d019151166bffffffffffffffffffffffff60a01b8254161790555160028b01555160038a01555190880155600587019451166fffffffffffffffff00000000000000008554945160401b1691519260038410156110395790600696959493929161ffff60881b905160881b16936cffffffffffffffffffffffffff60981b1617179060ff60801b9060801b161717905551910155335f52600960205260405f20908154976801000000000000000089101561102857505086610fc39160017f9fcc5776f3b554b79bbd6964c24d8c725f8cade28d554b08c86ee6e17528e6d5979899018155611236565b819291549060031b9187831b921b191617905561100185337f0000000000000000000000000000000000000000000000000000000000000000611526565b60405194855234602086015260408501523393a360015f8051602061163a83398151915255005b604190634e487b7160e01b5f52525ffd5b508760218f634e487b7160e01b5f52525ffd5b8560118d634e487b7160e01b5f52525ffd5b8460118c634e487b7160e01b5f52525ffd5b6064602094866040519788968795869463058b23cd60e41b8652339086015260408286015282604486015201848401375f828201840152601f01601f191681010301915afa90811561111e575f916110e4575b50156110d3575f8b868280610e12565b6040516303b2487b60e11b81528b90fd5b90506020813d602011611116575b816110ff60209383611290565b810103126101b257611110906112b2565b5f6110c3565b3d91506110f2565b6040513d5f823e3d90fd5b604051639950dd9960e01b8152808f01919091523481890152604490fd5b508760118f634e487b7160e01b5f52525ffd5b8660118e634e487b7160e01b5f52525ffd5b8460328c634e487b7160e01b5f52525ffd5b600154604051630223ecb560e01b815261ffff918216818d0152911681850152604490fd5b809850878092503d83116111f8575b6111bc8183611290565b810103126101b25786519661ffff881688036101b25760208101519760ff891689036101b2576111f0604060ff93016112b2565b509790610d72565b503d6111b2565b90600382101561120c5752565b634e487b7160e01b5f52602160045260245ffd5b600435906001600160a01b03821682036101b257565b805482101561124b575f5260205f2001905f90565b634e487b7160e01b5f52603260045260245ffd5b610140810190811067ffffffffffffffff82111761127c57604052565b634e487b7160e01b5f52604160045260245ffd5b90601f8019910116810190811067ffffffffffffffff82111761127c57604052565b519081151582036101b257565b919082039182116112cc57565b634e487b7160e01b5f52601160045260245ffd5b818102929181159184041417156112cc57565b81156112fd570490565b634e487b7160e01b5f52601260045260245ffd5b919082018092116112cc57565b805f52600860205261134260405f209161133c6002840154916113d7565b90611311565b9081156113915761136968056bc75e2d63100000916003611361611487565b9101546112e0565b0490670de0b6b3a7640000918281029281840414901517156112cc5761138e916112f3565b90565b50505f1990565b3d156113d2573d9067ffffffffffffffff821161127c57604051916113c7601f8201601f191660200184611290565b82523d5f602084013e565b606090565b5f52600860205260405f20600581015460ff8160801c16600381101561120c576114395764496cebb800916114308261ffff600261142267ffffffffffffffff6114359716426112bf565b9401549160881c16906112e0565b6112e0565b0490565b506006015490565b5f8051602061163a833981519152600281541461145e5760029055565b604051633ee5aeb560e01b8152600490fd5b519069ffffffffffffffffffff821682036101b257565b600654604051633fabe5a360e21b81529060a090829060049082906001600160a01b03165afa90811561111e575f916114d9575b505f8113156114c75790565b604051638002905d60e01b8152600490fd5b905060a0813d60a01161151e575b816114f460a09383611290565b810103126101b25761150581611470565b50611517608060208301519201611470565b505f6114bb565b3d91506114e7565b60405163a9059cbb60e01b5f9081526001600160a01b039384166004526024949094529260209060448180855af160015f5114811615611585575b836040521561156f57505050565b635274afe760e01b835216600482015260249150fd5b600181151661159b57813b15153d151616611561565b833d5f823e3d90fd5b6040516323b872dd60e01b5f9081526001600160a01b03938416600452938316602452604494909452909160209060648180855af160015f51148116156115f8575b836040525f6060521561156f57505050565b600181151661159b57813b15153d1516166115e6565b5f546001600160a01b0316330361162157565b60405163118cdaa760e01b8152336004820152602490fdfe9b779b17422d0df92223018b32b4d1fa46e071723d6817e2486d003becc55f00a264697066735822122037a3bb95513bcab3df2201d4b4e8d687bf35b9cea2eafcae5669bacb8c0de9a464736f6c63430008180033","linkReferences":{}},"methodIdentifiers":{"BASIS_POINTS()":"e1f1c4a7","LIQUIDATION_BONUS_BPS()":"ecd1dae6","LOAN_DURATION()":"e02a4dfd","SECONDS_PER_YEAR()":"e6a69ab8","borrow(uint256,bytes,uint256)":"15ad7946","borrowerLoans(address,uint256)":"e3ed1902","chainlinkEthUsd()":"923d70ce","creditScoreNFT()":"dd3c3d90","getAccruedInterest(uint256)":"9339ea69","getBorrowerLoans(address)":"eee8b7ff","getHealthFactor(uint256)":"17845c69","getLoan(uint256)":"504006ca","liquidate(uint256)":"415f1240","loans(uint256)":"e1ec3c68","nextLoanId()":"87c51459","owner()":"8da5cb5b","renounceOwnership()":"715018a6","repay(uint256)":"371fd8e6","rescueERC20(address,address,uint256)":"b2118a8d","setChainlinkFeed(address)":"8ea121a3","setZKVerifier(address)":"c5090346","transferOwnership(address)":"f2fde38b","usdc()":"3e413bee","zkVerifier()":"d6df096d"},"id":45}