{"abi":[{"type":"constructor","inputs":[{"name":"_owner","type":"address","internalType":"address"},{"name":"_trustedSigner","type":"address","internalType":"address"},{"name":"_creditScoreNFT","type":"address","internalType":"address"}],"stateMutability":"nonpayable"},{"type":"function","name":"ATTESTATION_WINDOW","inputs":[],"outputs":[{"name":"","type":"uint64","internalType":"uint64"}],"stateMutability":"view"},{"type":"function","name":"SCORE_ATTESTATION_TYPEHASH","inputs":[],"outputs":[{"name":"","type":"bytes32","internalType":"bytes32"}],"stateMutability":"view"},{"type":"function","name":"creditScoreNFT","inputs":[],"outputs":[{"name":"","type":"address","internalType":"contract ICreditScoreNFT"}],"stateMutability":"view"},{"type":"function","name":"eip712Domain","inputs":[],"outputs":[{"name":"fields","type":"bytes1","internalType":"bytes1"},{"name":"name","type":"string","internalType":"string"},{"name":"version","type":"string","internalType":"string"},{"name":"chainId","type":"uint256","internalType":"uint256"},{"name":"verifyingContract","type":"address","internalType":"address"},{"name":"salt","type":"bytes32","internalType":"bytes32"},{"name":"extensions","type":"uint256[]","internalType":"uint256[]"}],"stateMutability":"view"},{"type":"function","name":"owner","inputs":[],"outputs":[{"name":"","type":"address","internalType":"address"}],"stateMutability":"view"},{"type":"function","name":"renounceOwnership","inputs":[],"outputs":[],"stateMutability":"nonpayable"},{"type":"function","name":"setCreditScoreNFT","inputs":[{"name":"newNFT","type":"address","internalType":"address"}],"outputs":[],"stateMutability":"nonpayable"},{"type":"function","name":"setSigner","inputs":[{"name":"newSigner","type":"address","internalType":"address"}],"outputs":[],"stateMutability":"nonpayable"},{"type":"function","name":"submitScore","inputs":[{"name":"borrower","type":"address","internalType":"address"},{"name":"score","type":"uint16","internalType":"uint16"},{"name":"zkVerified","type":"bool","internalType":"bool"},{"name":"timestamp","type":"uint64","internalType":"uint64"},{"name":"sig","type":"bytes","internalType":"bytes"}],"outputs":[],"stateMutability":"nonpayable"},{"type":"function","name":"transferOwnership","inputs":[{"name":"newOwner","type":"address","internalType":"address"}],"outputs":[],"stateMutability":"nonpayable"},{"type":"function","name":"trustedSigner","inputs":[],"outputs":[{"name":"","type":"address","internalType":"address"}],"stateMutability":"view"},{"type":"event","name":"EIP712DomainChanged","inputs":[],"anonymous":false},{"type":"event","name":"OwnershipTransferred","inputs":[{"name":"previousOwner","type":"address","indexed":true,"internalType":"address"},{"name":"newOwner","type":"address","indexed":true,"internalType":"address"}],"anonymous":false},{"type":"event","name":"ScoreSubmitted","inputs":[{"name":"borrower","type":"address","indexed":true,"internalType":"address"},{"name":"score","type":"uint16","indexed":false,"internalType":"uint16"},{"name":"zkVerified","type":"bool","indexed":false,"internalType":"bool"},{"name":"timestamp","type":"uint64","indexed":false,"internalType":"uint64"}],"anonymous":false},{"type":"error","name":"AttestationExpired","inputs":[{"name":"timestamp","type":"uint64","internalType":"uint64"},{"name":"blockTime","type":"uint64","internalType":"uint64"}]},{"type":"error","name":"ECDSAInvalidSignature","inputs":[]},{"type":"error","name":"ECDSAInvalidSignatureLength","inputs":[{"name":"length","type":"uint256","internalType":"uint256"}]},{"type":"error","name":"ECDSAInvalidSignatureS","inputs":[{"name":"s","type":"bytes32","internalType":"bytes32"}]},{"type":"error","name":"InvalidShortString","inputs":[]},{"type":"error","name":"InvalidSignature","inputs":[]},{"type":"error","name":"OwnableInvalidOwner","inputs":[{"name":"owner","type":"address","internalType":"address"}]},{"type":"error","name":"OwnableUnauthorizedAccount","inputs":[{"name":"account","type":"address","internalType":"address"}]},{"type":"error","name":"StringTooLong","inputs":[{"name":"str","type":"string","internalType":"string"}]},{"type":"error","name":"UnauthorizedOracle","inputs":[]}],"bytecode":{"object":"0x610160346200022b57601f620012fa38819003918201601f19168301926001600160401b0392909183851183861017620002005781606092849260409788528339810103126200022b5762000054816200024b565b90620000708462000068602084016200024b565b92016200024b565b908451926200007f846200022f565b600b845260208401926a21b932b234ba2630bcb2b960a91b8452865196620000a7886200022f565b60018852603160f81b602089019081526001600160a01b039384169490851562000214575f80546001600160a01b0319808216891783559791908716907f8be0079c531659141344cd1fd0a4f28419497f9722a3daafe3b4186f6b6457e09080a3620001138862000260565b96610120978852620001258b62000429565b98610140998a52519020998a60e0525190209861010099808b524660a05283519060208201927f8b73c3c69bb8fe3d512ecc4cf759cc79239f7b179b0ffacaa9a75d522b39400f84528583015260608201524660808201523060a082015260a0815260c0810199818b10908b11176200020057898694525190206080523060c0521683600354161760035516906004541617600455610d239384620005d7853960805184610ac2015260a05184610b7d015260c05184610a8c015260e05184610b1101525183610b37015251826105cb015251816105f50152f35b634e487b7160e01b5f52604160045260245ffd5b8251631e4fbdf760e01b81525f6004820152602490fd5b5f80fd5b604081019081106001600160401b038211176200020057604052565b51906001600160a01b03821682036200022b57565b805160209081811015620002fa5750601f8251116200029b57808251920151908083106200028d57501790565b825f19910360031b1b161790565b90604051809263305a27a960e01b82528060048301528251908160248401525f935b828510620002e0575050604492505f838284010152601f80199101168101030190fd5b8481018201518686016044015293810193859350620002bd565b9192916001600160401b038111620002005760019182548381811c911680156200041e575b828210146200040a57601f8111620003d4575b5080601f8311600114620003705750819293945f9262000364575b50505f19600383901b1c191690821b17905560ff90565b015190505f806200034d565b90601f19831695845f52825f20925f905b888210620003bc5750508385969710620003a3575b505050811b01905560ff90565b01515f1960f88460031b161c191690555f808062000396565b80878596829496860151815501950193019062000381565b835f5283601f835f20920160051c820191601f850160051c015b828110620003fe57505062000332565b5f8155018490620003ee565b634e487b7160e01b5f52602260045260245ffd5b90607f16906200031f565b805160209081811015620004b55750601f8251116200045657808251920151908083106200028d57501790565b90604051809263305a27a960e01b82528060048301528251908160248401525f935b8285106200049b575050604492505f838284010152601f80199101168101030190fd5b848101820151868601604401529381019385935062000478565b906001600160401b0382116200020057600254926001938481811c91168015620005cb575b838210146200040a57601f811162000594575b5081601f84116001146200052c57509282939183925f9462000520575b50501b915f199060031b1c19161760025560ff90565b015192505f806200050a565b919083601f19811660025f52845f20945f905b8883831062000579575050501062000560575b505050811b0160025560ff90565b01515f1960f88460031b161c191690555f808062000552565b8587015188559096019594850194879350908101906200053f565b60025f5284601f845f20920160051c820191601f860160051c015b828110620005bf575050620004ed565b5f8155018590620005af565b90607f1690620004da56fe6080604081815260049182361015610015575f80fd5b5f925f3560e01c9182633d3d32641461076c575081636c19e78314610729578163715018a6146106d257816384b0196e146105b45781638da5cb5b1461058d578163b1402151146101de578163b35f5ca51461019d578163c5abc66514610180578163dd3c3d9014610158578163f2fde38b146100c6575063f74d54801461009b575f80fd5b346100c257816003193601126100c25760035490516001600160a01b039091168152602090f35b5080fd5b905034610154576020366003190112610154576100e16107a4565b906100ea610866565b6001600160a01b0391821692831561013e5750505f54826bffffffffffffffffffffffff60a01b8216175f55167f8be0079c531659141344cd1fd0a4f28419497f9722a3daafe3b4186f6b6457e05f80a380f35b51631e4fbdf760e01b8152908101849052602490fd5b8280fd5b9050346101545782600319360112610154575490516001600160a01b03909116815260209150f35b5050346100c257816003193601126100c2576020905161012c8152f35b8390346100c25760203660031901126100c2576101b86107a4565b6101c0610866565b81546001600160a01b0319166001600160a01b039190911617905580f35b919050346104605760a0366003190112610460576101fa6107a4565b60249182359261ffff84168094036104605760443590811515809203610460576064359367ffffffffffffffff918286168096036104605760843597838911610460573660238a011215610460578881013593808511610460573683868c0101116104605780421661012c80820183811161057b5783168a11908115610554575b5061053957508651996020956042878d017f3c380c749ad24971c0eb418476ea5bbbabd91470eeae5cdd9edf668c267e6d56815260018060a01b038098169d8e8c8201528d60608201528c60808201528a60a082015260a081526102de816107f8565b5190206102e9610a89565b908b519161190160f01b835260028301526022820152209060418103610529578692610348925f8a8461033f958f8c90519661032e85601f19601f8601160189610844565b828852018387013784010152610ba3565b90929192610bdd565b1680156105195784600354160361050a57815487516378a9bb4360e11b81528084018c90529490811686868681845afa958615610500579087915f976104cf575b508615610464575b505082541693843b15610460578960645f92838b51988994859363b4f535d160e01b855289850152898401528b60448401525af1801561045657610409575b8a8a7f85bbdfd751b3a7b7f271a54037ed12619fe32de4a09d2702c34c329c2dd5644960608c8c8c8c8c8251948552840152820152a280f35b90919280949a501161044557505082525f95817f85bbdfd751b3a7b7f271a54037ed12619fe32de4a09d2702c34c329c2dd564496060896103d0565b604190634e487b7160e01b5f52525ffd5b87513d5f823e3d90fd5b5f80fd5b5f929650858d8b5194859384926313d4d4bd60e01b8452898401525af19081156104c5575f91610498575b5093855f610391565b90508581813d83116104be575b6104af8183610844565b8101031261046057515f61048f565b503d6104a5565b88513d5f823e3d90fd5b8281939298503d83116104f9575b6104e78183610844565b8101031261046057869051955f610389565b503d6104dd565b89513d5f823e3d90fd5b50855163db8d1fb760e01b8152fd5b8751638baa579f60e01b81528390fd5b8951638baa579f60e01b81528590fd5b905060449288885193632ea09acb60e11b8552840152820152fd5b8a8311915081610566575b505f61027b565b905089820383811161057b578316115f61055f565b85601186634e487b7160e01b5f52525ffd5b8234610460575f366003190112610460575f5490516001600160a01b039091168152602090f35b905034610460575f366003190112610460576105ef7f0000000000000000000000000000000000000000000000000000000000000000610891565b916106197f00000000000000000000000000000000000000000000000000000000000000006109b6565b815191602091602084019484861067ffffffffffffffff8711176106bf5750610674826020928761066799989795525f85528151988998600f60f81b8a5260e0868b015260e08a01906107ba565b91888303908901526107ba565b914660608701523060808701525f60a087015285830360c087015251918281520192915f5b8281106106a857505050500390f35b835185528695509381019392810192600101610699565b604190634e487b7160e01b5f525260245ffd5b34610460575f366003190112610460576106ea610866565b5f80546001600160a01b0319811682556001600160a01b03167f8be0079c531659141344cd1fd0a4f28419497f9722a3daafe3b4186f6b6457e08280a3005b34610460576020366003190112610460576107426107a4565b61074a610866565b600380546001600160a01b0319166001600160a01b0392909216919091179055005b34610460575f36600319011261046057807f3c380c749ad24971c0eb418476ea5bbbabd91470eeae5cdd9edf668c267e6d5660209252f35b600435906001600160a01b038216820361046057565b91908251928382525f5b8481106107e4575050825f602080949584010152601f8019910116010190565b6020818301810151848301820152016107c4565b60c0810190811067ffffffffffffffff82111761081457604052565b634e487b7160e01b5f52604160045260245ffd5b6040810190811067ffffffffffffffff82111761081457604052565b90601f8019910116810190811067ffffffffffffffff82111761081457604052565b5f546001600160a01b0316330361087957565b60405163118cdaa760e01b8152336004820152602490fd5b60ff81146108cf5760ff811690601f82116108bd57604051916108b383610828565b8252602082015290565b604051632cd44ac360e21b8152600490fd5b506040515f60018054918260011c600184169283156109ac575b6020948583108514610998578287528694908115610978575060011461091b575b505061091892500382610844565b90565b9093915060015f527fb10e2d527612073b26eecdfd717e6a320cf44b4afac2b0732d9fcbe2b7fa0cf6935f915b81831061096057505061091893508201015f8061090a565b85548784018501529485019486945091830191610948565b91505061091894925060ff191682840152151560051b8201015f8061090a565b634e487b7160e01b5f52602260045260245ffd5b90607f16906108e9565b60ff81146109d85760ff811690601f82116108bd57604051916108b383610828565b506040515f600254906001908260011c60018416928315610a7f575b60209485831085146109985782875286949081156109785750600114610a2257505061091892500382610844565b9093915060025f527f405787fa12a823e0f2b7631cc41b3ba8828b3321ca811111fa75cd3aa3bb5ace935f915b818310610a6757505061091893508201015f8061090a565b85548784018501529485019486945091830191610a4f565b90607f16906109f4565b307f00000000000000000000000000000000000000000000000000000000000000006001600160a01b03161480610b7a575b15610ae4577f000000000000000000000000000000000000000000000000000000000000000090565b60405160208101907f8b73c3c69bb8fe3d512ecc4cf759cc79239f7b179b0ffacaa9a75d522b39400f82527f000000000000000000000000000000000000000000000000000000000000000060408201527f000000000000000000000000000000000000000000000000000000000000000060608201524660808201523060a082015260a08152610b74816107f8565b51902090565b507f00000000000000000000000000000000000000000000000000000000000000004614610abb565b8151919060418303610bd357610bcc9250602082015190606060408401519301515f1a90610c60565b9192909190565b50505f9160029190565b6004811015610c4c5780610bef575050565b60018103610c095760405163f645eedf60e01b8152600490fd5b60028103610c2a5760405163fce698f760e01b815260048101839052602490fd5b600314610c345750565b602490604051906335e2f38360e21b82526004820152fd5b634e487b7160e01b5f52602160045260245ffd5b91907f7fffffffffffffffffffffffffffffff5d576e7357a4501ddfe92f46681b20a08411610ce2579160209360809260ff5f9560405194855216868401526040830152606082015282805260015afa15610cd7575f516001600160a01b03811615610ccd57905f905f90565b505f906001905f90565b6040513d5f823e3d90fd5b5050505f916003919056fea2646970667358221220626d89e1c89ce35fff74b60df78fcba40ad0fdcbcc473c3dd9ed83a04a3b8ef664736f6c63430008180033","linkReferences":{}},"methodIdentifiers":{"ATTESTATION_WINDOW()":"c5abc665","SCORE_ATTESTATION_TYPEHASH()":"3d3d3264","creditScoreNFT()":"dd3c3d90","eip712Domain()":"84b0196e","owner()":"8da5cb5b","renounceOwnership()":"715018a6","setCreditScoreNFT(address)":"b35f5ca5","setSigner(address)":"6c19e783","submitScore(address,uint16,bool,uint64,bytes)":"b1402151","transferOwnership(address)":"f2fde38b","trustedSigner()":"f74d5480"},"id":54}