{"abi":[{"type":"constructor","inputs":[{"name":"initialOwner","type":"address","internalType":"address"},{"name":"_oracle","type":"address","internalType":"address"}],"stateMutability":"nonpayable"},{"type":"function","name":"UPDATE_COOLDOWN","inputs":[],"outputs":[{"name":"","type":"uint256","internalType":"uint256"}],"stateMutability":"view"},{"type":"function","name":"approve","inputs":[{"name":"to","type":"address","internalType":"address"},{"name":"tokenId","type":"uint256","internalType":"uint256"}],"outputs":[],"stateMutability":"nonpayable"},{"type":"function","name":"balanceOf","inputs":[{"name":"owner","type":"address","internalType":"address"}],"outputs":[{"name":"","type":"uint256","internalType":"uint256"}],"stateMutability":"view"},{"type":"function","name":"getApproved","inputs":[{"name":"tokenId","type":"uint256","internalType":"uint256"}],"outputs":[{"name":"","type":"address","internalType":"address"}],"stateMutability":"view"},{"type":"function","name":"getScore","inputs":[{"name":"wallet","type":"address","internalType":"address"}],"outputs":[{"name":"score","type":"uint16","internalType":"uint16"},{"name":"tier","type":"uint8","internalType":"uint8"},{"name":"zkVerified","type":"bool","internalType":"bool"}],"stateMutability":"view"},{"type":"function","name":"getTier","inputs":[{"name":"score","type":"uint16","internalType":"uint16"}],"outputs":[{"name":"tier","type":"uint8","internalType":"uint8"}],"stateMutability":"pure"},{"type":"function","name":"getTokenId","inputs":[{"name":"wallet","type":"address","internalType":"address"}],"outputs":[{"name":"","type":"uint256","internalType":"uint256"}],"stateMutability":"view"},{"type":"function","name":"isApprovedForAll","inputs":[{"name":"owner","type":"address","internalType":"address"},{"name":"operator","type":"address","internalType":"address"}],"outputs":[{"name":"","type":"bool","internalType":"bool"}],"stateMutability":"view"},{"type":"function","name":"mintScore","inputs":[{"name":"to","type":"address","internalType":"address"}],"outputs":[{"name":"tokenId","type":"uint256","internalType":"uint256"}],"stateMutability":"nonpayable"},{"type":"function","name":"name","inputs":[],"outputs":[{"name":"","type":"string","internalType":"string"}],"stateMutability":"view"},{"type":"function","name":"oracle","inputs":[],"outputs":[{"name":"","type":"address","internalType":"address"}],"stateMutability":"view"},{"type":"function","name":"owner","inputs":[],"outputs":[{"name":"","type":"address","internalType":"address"}],"stateMutability":"view"},{"type":"function","name":"ownerOf","inputs":[{"name":"tokenId","type":"uint256","internalType":"uint256"}],"outputs":[{"name":"","type":"address","internalType":"address"}],"stateMutability":"view"},{"type":"function","name":"renounceOwnership","inputs":[],"outputs":[],"stateMutability":"nonpayable"},{"type":"function","name":"safeTransferFrom","inputs":[{"name":"from","type":"address","internalType":"address"},{"name":"to","type":"address","internalType":"address"},{"name":"tokenId","type":"uint256","internalType":"uint256"}],"outputs":[],"stateMutability":"nonpayable"},{"type":"function","name":"safeTransferFrom","inputs":[{"name":"","type":"address","internalType":"address"},{"name":"","type":"address","internalType":"address"},{"name":"","type":"uint256","internalType":"uint256"},{"name":"","type":"bytes","internalType":"bytes"}],"outputs":[],"stateMutability":"pure"},{"type":"function","name":"setApprovalForAll","inputs":[{"name":"operator","type":"address","internalType":"address"},{"name":"approved","type":"bool","internalType":"bool"}],"outputs":[],"stateMutability":"nonpayable"},{"type":"function","name":"setOracle","inputs":[{"name":"newOracle","type":"address","internalType":"address"}],"outputs":[],"stateMutability":"nonpayable"},{"type":"function","name":"supportsInterface","inputs":[{"name":"interfaceId","type":"bytes4","internalType":"bytes4"}],"outputs":[{"name":"","type":"bool","internalType":"bool"}],"stateMutability":"view"},{"type":"function","name":"symbol","inputs":[],"outputs":[{"name":"","type":"string","internalType":"string"}],"stateMutability":"view"},{"type":"function","name":"tokenURI","inputs":[{"name":"tokenId","type":"uint256","internalType":"uint256"}],"outputs":[{"name":"","type":"string","internalType":"string"}],"stateMutability":"view"},{"type":"function","name":"transferFrom","inputs":[{"name":"","type":"address","internalType":"address"},{"name":"","type":"address","internalType":"address"},{"name":"","type":"uint256","internalType":"uint256"}],"outputs":[],"stateMutability":"pure"},{"type":"function","name":"transferOwnership","inputs":[{"name":"newOwner","type":"address","internalType":"address"}],"outputs":[],"stateMutability":"nonpayable"},{"type":"function","name":"updateScore","inputs":[{"name":"tokenId","type":"uint256","internalType":"uint256"},{"name":"newScore","type":"uint16","internalType":"uint16"},{"name":"zkVerified","type":"bool","internalType":"bool"}],"outputs":[],"stateMutability":"nonpayable"},{"type":"function","name":"walletToTokenId","inputs":[{"name":"","type":"address","internalType":"address"}],"outputs":[{"name":"","type":"uint256","internalType":"uint256"}],"stateMutability":"view"},{"type":"event","name":"Approval","inputs":[{"name":"owner","type":"address","indexed":true,"internalType":"address"},{"name":"approved","type":"address","indexed":true,"internalType":"address"},{"name":"tokenId","type":"uint256","indexed":true,"internalType":"uint256"}],"anonymous":false},{"type":"event","name":"ApprovalForAll","inputs":[{"name":"owner","type":"address","indexed":true,"internalType":"address"},{"name":"operator","type":"address","indexed":true,"internalType":"address"},{"name":"approved","type":"bool","indexed":false,"internalType":"bool"}],"anonymous":false},{"type":"event","name":"OwnershipTransferred","inputs":[{"name":"previousOwner","type":"address","indexed":true,"internalType":"address"},{"name":"newOwner","type":"address","indexed":true,"internalType":"address"}],"anonymous":false},{"type":"event","name":"ScoreUpdated","inputs":[{"name":"wallet","type":"address","indexed":true,"internalType":"address"},{"name":"tokenId","type":"uint256","indexed":true,"internalType":"uint256"},{"name":"newScore","type":"uint16","indexed":false,"internalType":"uint16"},{"name":"tier","type":"uint8","indexed":false,"internalType":"uint8"},{"name":"zkVerified","type":"bool","indexed":false,"internalType":"bool"}],"anonymous":false},{"type":"event","name":"ScoreUpdated","inputs":[{"name":"wallet","type":"address","indexed":true,"internalType":"address"},{"name":"newScore","type":"uint16","indexed":false,"internalType":"uint16"},{"name":"tier","type":"uint8","indexed":false,"internalType":"uint8"},{"name":"zkVerified","type":"bool","indexed":false,"internalType":"bool"}],"anonymous":false},{"type":"event","name":"Transfer","inputs":[{"name":"from","type":"address","indexed":true,"internalType":"address"},{"name":"to","type":"address","indexed":true,"internalType":"address"},{"name":"tokenId","type":"uint256","indexed":true,"internalType":"uint256"}],"anonymous":false},{"type":"error","name":"CooldownNotExpired","inputs":[{"name":"nextUpdateAllowed","type":"uint64","internalType":"uint64"}]},{"type":"error","name":"ERC721IncorrectOwner","inputs":[{"name":"sender","type":"address","internalType":"address"},{"name":"tokenId","type":"uint256","internalType":"uint256"},{"name":"owner","type":"address","internalType":"address"}]},{"type":"error","name":"ERC721InsufficientApproval","inputs":[{"name":"operator","type":"address","internalType":"address"},{"name":"tokenId","type":"uint256","internalType":"uint256"}]},{"type":"error","name":"ERC721InvalidApprover","inputs":[{"name":"approver","type":"address","internalType":"address"}]},{"type":"error","name":"ERC721InvalidOperator","inputs":[{"name":"operator","type":"address","internalType":"address"}]},{"type":"error","name":"ERC721InvalidOwner","inputs":[{"name":"owner","type":"address","internalType":"address"}]},{"type":"error","name":"ERC721InvalidReceiver","inputs":[{"name":"receiver","type":"address","internalType":"address"}]},{"type":"error","name":"ERC721InvalidSender","inputs":[{"name":"sender","type":"address","internalType":"address"}]},{"type":"error","name":"ERC721NonexistentToken","inputs":[{"name":"tokenId","type":"uint256","internalType":"uint256"}]},{"type":"error","name":"OwnableInvalidOwner","inputs":[{"name":"owner","type":"address","internalType":"address"}]},{"type":"error","name":"OwnableUnauthorizedAccount","inputs":[{"name":"account","type":"address","internalType":"address"}]},{"type":"error","name":"SoulBoundToken","inputs":[]},{"type":"error","name":"UnauthorizedOracle","inputs":[]}],"bytecode":{"object":"0x6080346200039b57601f1990601f906001600160401b03620023bd3881900384810186168401919083831185841017620002bd5780859260409485528339810103126200039b576200005182620003bf565b90620000616020809401620003bf565b936200006c6200039f565b9360118552704372656469744c617965722053636f726560781b81860152620000946200039f565b966007885266434c53434f524560c81b828901528551848111620002bd575f546001978882811c9216801562000390575b858310146200029e5781868493116200033d575b508490868311600114620002dd575f92620002d1575b50505f19600383901b1c191690871b175f555b8751938411620002bd5785548681811c91168015620002b2575b838210146200029e5783811162000256575b5081928411600114620001f057505081929394955f92620001e4575b50505f19600383901b1c191690831b1782555b6001600160a01b03908116908115620001cc57600680546001600160a01b031980821685179092556040519591939083167f8be0079c531659141344cd1fd0a4f28419497f9722a3daafe3b4186f6b6457e05f80a316906007541617600755600a55611fe89081620003d58239f35b604051631e4fbdf760e01b81525f6004820152602490fd5b015190505f806200014a565b5f868152828120918516989193925b8982106200023e575050838697989695961062000225575b505050811b0182556200015d565b01515f1960f88460031b161c191690555f808062000217565b808885968294968601518155019501930190620001ff565b865f52825f208480870160051c82019285881062000294575b0160051c019087905b828110620002885750506200012e565b5f815501879062000278565b925081926200026f565b634e487b7160e01b5f52602260045260245ffd5b90607f16906200011c565b634e487b7160e01b5f52604160045260245ffd5b015190505f80620000ef565b90848a9416915f8052865f20925f5b888282106200032657505084116200030d575b505050811b015f5562000102565b01515f1960f88460031b161c191690555f8080620002ff565b8385015186558d97909501949384019301620002ec565b9091505f8052845f208680850160051c82019287861062000386575b918b91869594930160051c01915b82811062000377575050620000d9565b5f81558594508b910162000367565b9250819262000359565b91607f1691620000c5565b5f80fd5b60408051919082016001600160401b03811183821017620002bd57604052565b51906001600160a01b03821682036200039b5756fe608060409080825260049081361015610016575f80fd5b5f3560e01c90816301ffc9a7146118cb5750806306fdde0314611804578063081812fc146117cb578063095ea7b3146116ef57806313d4d4bd1461135e57806323b872dd1461133e57806342842e0e14611311578063576c3de7146112dd5780636352211e146112ad57806370a0823114611258578063715018a6146111fd5780637adbf973146111ba5780637dc0d1d0146111925780638da5cb5b1461116a57806395d89b41146110695780639c2806c7146101bf5780639d5739e71461104c578063a22cb46514610f94578063b4f535d114610e20578063b88d4fde14610d97578063c87b56dd146102c6578063d47875d014610244578063e985e9c5146101f6578063f1537686146101bf5763f2fde38b14610133575f80fd5b346101bb5760203660031901126101bb5761014c61197b565b90610155611ad6565b6001600160a01b039182169283156101a5575050600654826001600160601b0360a01b821617600655167f8be0079c531659141344cd1fd0a4f28419497f9722a3daafe3b4186f6b6457e05f80a3005b905f6024925191631e4fbdf760e01b8352820152fd5b5f80fd5b82346101bb5760203660031901126101bb576020906001600160a01b036101e461197b565b165f5260088252805f20549051908152f35b82346101bb57806003193601126101bb5760209061021261197b565b61021a611991565b9060018060a01b038091165f5260058452825f2091165f52825260ff815f20541690519015158152f35b82346101bb5760203660031901126101bb5760ff906001600160a01b0361026961197b565b165f526008602052805f20545f5260096020526102c2815f20549161ffff8360a01c169061029682611a66565b905194859460f01c169184919260ff604092959461ffff60608601971685521660208401521515910152565b0390f35b50346101bb57602090816003193601126101bb578035906102e682611a9c565b50815f5260098352835f20549061ffff8260a01c169260ff61030785611a66565b9360f01c169161031684611d0f565b9161032085611db7565b61032986611c69565b610140808902908982041489151715610d84578a8715610d6d57517f3c67207472616e73666f726d3d227472616e736c617465283331302c333029228b820152601f60f91b8c8201527f3c636972636c6520723d223132222066696c6c3d2223323263353565222f3e0060418201527f3c7465787420783d22302220793d22352220746578742d616e63686f723d226d60608201527f6964646c652220666f6e742d73697a653d223134222066696c6c3d227768697460808201527f652220666f6e742d66616d696c793d226d6f6e6f7370616365223e262331303060a08201526918199d9e17ba32bc3a1f60b11b60c0820152631e17b39f60e11b60ca82015260ae815260e0810181811067ffffffffffffffff821117610d5a578c528b9392915b8b6104568c611b02565b916103e8900461046590611b02565b918651998a978389017f3c73766720786d6c6e733d22687474703a2f2f7777772e77332e6f72672f3230905288017f30302f737667222076696577426f783d223020302034303020323430222077699052606088017f6474683d2234303022206865696768743d22323430223e0000000000000000009052607788017f3c726563742077696474683d2234303022206865696768743d2232343022207290526c3c1e91189b11103334b6361e9160991b6097890152805190818460a48b0192019161052f92611935565b6211179f60e91b90880160a481018290527f3c7265637420783d22342220793d2234222077696474683d223339322220686560a78201527f696768743d22323332222072783d223133222066696c6c3d226e6f6e6522207360c7820152663a3937b5b29e9160c91b60e782015287519196848901969290916105b58260ee83018a611935565b7f22207374726f6b652d77696474683d223222206f7061636974793d22302e362260ee929091019182015261179f60f11b61010e8201527f3c7465787420783d2234302220793d2234322220666f6e742d66616d696c793d6101108201527f226d6f6e6f73706163652c436f7572696572204e65772220666f6e742d73697a6101308201527f653d2231382220666f6e742d7765696768743d22626f6c64222066696c6c3d2261015082015288516101709391610675828683018b611935565b73111f21b932b234ba2630bcb2b91e17ba32bc3a1f60611b91019384015280516101849390916106ac908390868401908901611935565b019182017f3c7465787420783d223230302220793d223134302220746578742d616e63686f90527f723d226d6964646c652220666f6e742d66616d696c793d226d6f6e6f7370616392836101a48401526101c483017f652c436f7572696572204e65772220666f6e742d73697a653d2238302220666f90526101e483017f6e742d7765696768743d22626f6c64222066696c6c3d2200000000000000000090526101fb928951908185820190610762918b611935565b70111037b830b1b4ba3c9e9118171c9a911f60791b910193840152805161020c939091610796908390868401908901611935565b661e17ba32bc3a1f60c91b91019283018190527f3c7465787420783d223230302220793d223137322220746578742d616e63686f6102138401526102338301939093527f652c436f7572696572204e65772220666f6e742d73697a653d223134222066696102538301526336361e9160e11b61027383015287516102779392610822828683018a611935565b7411103632ba3a32b916b9b830b1b4b7339e911a111f60591b910193840152805161028c93909161085a908390868401908801611935565b01918201527f3c7265637420783d2234302220793d22313935222077696474683d22333230226102938201527f206865696768743d223130222072783d2235222066696c6c3d222333333333336102b3820152631991179f60e11b6102d38201527f3c7265637420783d2234302220793d22313935222077696474683d22000000006102d782015282516102f39390926108fa9184918685019101611935565b019081017f22206865696768743d223130222072783d2235222066696c6c3d220000000000905261030e9351918285830161093492611935565b01918201527f3c7465787420783d2234302220793d223232322220666f6e742d66616d696c796103118201527f3d226d6f6e6f73706163652c436f7572696572204e65772220666f6e742d73696103318201527f7a653d223130222066696c6c3d2223363636363636223e303c2f746578743e006103518201527f3c7465787420783d223335322220793d223232322220666f6e742d66616d696c6103708201527f793d226d6f6e6f73706163652c436f7572696572204e65772220666f6e742d736103908201527f697a653d223130222066696c6c3d22233636363636362220746578742d616e636103b0820152743437b91e9132b732111f189818181e17ba32bc3a1f60591b6103d0820152651e17b9bb339f60d11b6103e5820152036103cb81018452610a68906103eb0184611a28565b610a7190611b02565b94610a7b90611b02565b93610a8590611c69565b925f1494610cd494610ccf9361011e936102c298610d34578a51610ac091610aac82611a0c565b8152637472756560e01b8b82015291611e5f565b908a519687947f7b226e616d65223a224372656469744c617965722053636f72652023000000008c870152610aff8c8251928391603c8a019101611935565b850193601160f91b9485603c8201527f2c226465736372697074696f6e223a224120736f756c2d626f756e6420637265603d8201527f6469742073636f7265204e465420697373756564206279204372656469744c61605d820152643cb2b9171160d91b607d8201526e2c2261747472696275746573223a5b60881b60828201527f7b2274726169745f74797065223a2253636f7265222c2276616c7565223a00006091820152610bba8d835193849160af85019101611935565b01611f4b60f21b60af8201527f7b2274726169745f74797065223a2254696572222c2276616c7565223a22000060b1820152610c008c835193849160cf85019101611935565b0162089f4b60ea1b60cf8201527f7b2274726169745f74797065223a225a4b205665726966696564222c2276616c60d2820152633ab2911d60e11b60f2820152610c53825180938d60f685019101611935565b0191607d60f81b918260f6850152605d60f81b60f78501527f2c22696d616765223a22646174613a696d6167652f7376672b786d6c3b62617360f885015263194d8d0b60e21b61011885015261011c93610cb68c83519384918885019101611935565b019283015261011d8201520360fe810184520182611a28565b611e5f565b92610d25603d825180967f646174613a6170706c69636174696f6e2f6a736f6e3b6261736536342c00000087830152610d1581518092898686019101611935565b810103601d810187520185611a28565b51928284938452830190611956565b50610ac08a51610d4381611a0c565b600581526466616c736560d81b8b82015291611e5f565b604187634e487b7160e01b5f525260245ffd5b9291908351610d7b816119dc565b5f81529061044c565b601185634e487b7160e01b5f525260245ffd5b5090346101bb5760803660031901126101bb57610db261197b565b50610dbb611991565b5060643567ffffffffffffffff81116101bb57366023820112156101bb578083013590610de782611a4a565b91610df484519384611a28565b80835236602482840101116101bb575f9281602460209401848301370101525163185024ef60e31b8152fd5b5090346101bb5760603660031901126101bb5781359160243561ffff811681036101bb5760443580151581036101bb576007546001600160a01b039081163303610f8457855f526009602052845f209367ffffffffffffffff9081865460b01c169062015180820191838311610f7157151580610f66575b610f4f575050845460a085901b61ffff60a01b1669ffffffffffffffffffff60a01b1990911617429190911660b01b67ffffffffffffffff60b01b161784557fec649433461fe0978d6c09f28ecc57aeef727acbc6e6825fa0ece43fa7767bd9939291610f4a91845460ff60f01b191682151560f01b60ff60f01b16178555610f2084611a66565b945416955193849384919260ff604092959461ffff60608601971685521660208401521515910152565b0390a3005b602492885192631bc27fe160e11b84521690820152fd5b508282164210610e98565b601182634e487b7160e01b5f525260245ffd5b845163db8d1fb760e01b81528490fd5b5090346101bb57806003193601126101bb57610fae61197b565b90602435918215158093036101bb573315611036576001600160a01b03169283156110215750335f526005602052805f20835f52602052805f2060ff1981541660ff8416179055519081527f17307eab39ab6107e8899845ad3d59bd9653f200f220920489ca2b5937696c3160203392a3005b836024925191630b61174360e31b8352820152fd5b815163a9fbf51f60e01b81525f81860152602490fd5b82346101bb575f3660031901126101bb5760209051620151808152f35b5090346101bb575f3660031901126101bb578051905f90600191600154928360011c9060018516948515611160575b602095868410811461114d5783885287949392918790821561112b5750506001146110d0575b50506102c29291610d25910385611a28565b9085925060015f527fb10e2d527612073b26eecdfd717e6a320cf44b4afac2b0732d9fcbe2b7fa0cf6915f925b8284106111135750505082010181610d256110be565b8054848a0186015288955087949093019281016110fd565b60ff19168682015292151560051b85019092019250839150610d2590506110be565b602289634e487b7160e01b5f525260245ffd5b91607f1691611098565b82346101bb575f3660031901126101bb5760065490516001600160a01b039091168152602090f35b82346101bb575f3660031901126101bb5760075490516001600160a01b039091168152602090f35b346101bb5760203660031901126101bb576111d361197b565b6111db611ad6565b600780546001600160a01b0319166001600160a01b0392909216919091179055005b346101bb575f3660031901126101bb57611215611ad6565b600680546001600160a01b031981169091555f906001600160a01b03167f8be0079c531659141344cd1fd0a4f28419497f9722a3daafe3b4186f6b6457e08280a3005b5090346101bb5760203660031901126101bb576001600160a01b0361127b61197b565b16801561129757602092505f5260038252805f20549051908152f35b81516322718ad960e21b81525f81850152602490fd5b5090346101bb5760203660031901126101bb576112cc60209235611a9c565b90516001600160a01b039091168152f35b50346101bb5760203660031901126101bb57359061ffff821682036101bb5760ff611309602093611a66565b915191168152f35b5090346101bb57611321366119a7565b5050505f8151611330816119dc565b525163185024ef60e31b8152fd5b5090346101bb5761134e366119a7565b5050505163185024ef60e31b8152fd5b50346101bb57602091826003193601126101bb5761137a61197b565b6007546001600160a01b03939190841633036116e05783811691825f5260088652835f205461168c57600a549460018601600a5584516113b9816119dc565b5f8152841561167657865f526002885281865f20541693841515948561164b575b865f5260038a52875f2060018154019055885f5260028a52875f20956001600160601b0360a01b96888882541617905589888a51937fddf252ad1be2c89b69c2b068fc378daa952ba7f163c4a11628f55a4df523b3ef5f80a461163757503b61151b575b508451926080840167ffffffffffffffff9385821085831117611508575086528484525f888501818152858801828152606087018381528a845260098c529289902096518754925161ffff60a01b60a09190911b169516939091169290921761ffff60a01b19169290921784556114f793926114dc9151845467ffffffffffffffff60b01b1916911660b01b67ffffffffffffffff60b01b16178355565b51815460ff60f01b191690151560f01b60ff60f01b16179055565b5f526008835281815f205551908152f35b604190634e487b7160e01b5f525260245ffd5b8594959693929651888180611557630a85bd0160e11b95868352338d8401525f6024840152896044840152608060648401526084830190611956565b03815f8b5af15f91816115f7575b506115c45750505050503d5f146115bc573d9361158185611a4a565b9461158e83519687611a28565b85523d5f8287013e5b845194856115b657505051633250574960e11b81529182015260249150fd5b85925001fd5b606093611597565b939694959492936001600160e01b031916036115e0575f61143e565b8451633250574960e11b8152808301859052602490fd5b9091508981813d8311611630575b61160f8183611a28565b810103126101bb57516001600160e01b0319811681036101bb57905f611565565b503d611605565b6339e3563760e11b81525f85820152602490fd5b848a525f88812080546001600160a01b031916905581815260038b5288902080545f190190556113da565b8551633250574960e11b81525f81850152602490fd5b835162461bcd60e51b8152908101869052602860248201527f43726564697453636f72654e46543a2077616c6c657420616c7265616479206860448201526730b9903a37b5b2b760c11b6064820152608490fd5b50905163db8d1fb760e01b8152fd5b5090346101bb57806003193601126101bb5761170961197b565b9160243561171681611a9c565b331515806117b8575b80611791575b61177b576001600160a01b039485169482918691167f8c5be1e5ebec7d5bd14f71427d1e84f3dd0314c0f7b2291e5b200ac8c7c3b9255f80a45f526020525f20906001600160601b0360a01b8254161790555f80f35b835163a9fbf51f60e01b81523381850152602490fd5b5060018060a01b0381165f526005602052835f20335f5260205260ff845f20541615611725565b506001600160a01b03811633141561171f565b5090346101bb5760203660031901126101bb5781602092356117ec81611a9c565b505f52825260018060a01b03815f2054169051908152f35b5090346101bb575f3660031901126101bb578051905f905f549160018360011c90600185169485156118c1575b602095868410811461114d5783885287949392918790821561112b5750506001146118685750506102c29291610d25910385611a28565b5f80805286935091907f290decd9548b62a8d60345a988386fc84ba6bc95484008f6362f93160ef3e5635b8284106118a95750505082010181610d256110be565b8054848a018601528895508794909301928101611893565b91607f1691611831565b82346101bb5760203660031901126101bb57359063ffffffff60e01b82168092036101bb576020916380ac58cd60e01b8114908115611924575b8115611913575b5015158152f35b6301ffc9a760e01b1490508361190c565b635b5e139f60e01b81149150611905565b5f5b8381106119465750505f910152565b8181015183820152602001611937565b9060209161196f81518092818552858086019101611935565b601f01601f1916010190565b600435906001600160a01b03821682036101bb57565b602435906001600160a01b03821682036101bb57565b60609060031901126101bb576001600160a01b039060043582811681036101bb579160243590811681036101bb579060443590565b6020810190811067ffffffffffffffff8211176119f857604052565b634e487b7160e01b5f52604160045260245ffd5b6040810190811067ffffffffffffffff8211176119f857604052565b90601f8019910116810190811067ffffffffffffffff8211176119f857604052565b67ffffffffffffffff81116119f857601f01601f191660200190565b61ffff16610320811015611a9657610258811015611a905761012c1115611a8b575f90565b600190565b50600290565b50600390565b5f818152600260205260409020546001600160a01b0316908115611abe575090565b60249060405190637e27328960e01b82526004820152fd5b6006546001600160a01b03163303611aea57565b60405163118cdaa760e01b8152336004820152602490fd5b805f917a184f03e93ff9f4daa797ed6e38ed64bf6a1f01000000000000000080821015611c5b575b506d04ee2d6d415b85acef810000000080831015611c4c575b50662386f26fc1000080831015611c3d575b506305f5e10080831015611c2e575b5061271080831015611c1f575b506064821015611c0f575b600a80921015611c05575b6001908160216001860195611b9b87611a4a565b96611ba96040519889611a28565b808852611bb8601f1991611a4a565b01366020890137860101905b611bd0575b5050505090565b5f19019083906f181899199a1a9b1b9c1cb0b131b232b360811b8282061a835304918215611c0057919082611bc4565b611bc9565b9160010191611b87565b9190606460029104910191611b7c565b6004919392049101915f611b71565b6008919392049101915f611b64565b6010919392049101915f611b55565b6020919392049101915f611b43565b60409350810491505f611b2a565b60ff1660038114611cee5760028114611ccb57600114611ca957604051611c8f81611a0c565b600a8152691553959154925192515160b21b602082015290565b604051611cb581611a0c565b600681526542524f4e5a4560d01b602082015290565b50604051611cd881611a0c565b600681526529a4a62b22a960d11b602082015290565b50604051611cfb81611a0c565b600481526311d3d31160e21b602082015290565b60ff1660038114611d935760028114611d6f57600114611d4c57604051611d3581611a0c565b60078152662331313131313160c81b602082015290565b604051611d5881611a0c565b60078152660233161306530360cc1b602082015290565b50604051611d7c81611a0c565b60078152662330643161316160c81b602082015290565b50604051611da081611a0c565b60078152660233161313430360cc1b602082015290565b60ff1660038114611e3b5760028114611e1757600114611df457604051611ddd81611a0c565b60078152662335353535353560c81b602082015290565b604051611e0081611a0c565b600781526611a1a21ba3199960c91b602082015290565b50604051611e2481611a0c565b60078152660234330433043360cc1b602082015290565b50604051611e4881611a0c565b60078152660234646443730360cc1b602082015290565b805115611f9f578051916002808401809411611f8b57600393849004600281901b91906001600160fe1b03811603611f8b5793604051937f4142434445464748494a4b4c4d4e4f505152535455565758595a616263646566601f52603f917f6768696a6b6c6d6e6f707172737475767778797a303132333435363738392b2f603f5260208601928291835184019160208301998a51945f8c525b848110611f4f57505050505090600391602095969752510680600114611f3a57600214611f2d575b50808452830101604052565b603d905f1901535f611f21565b50603d90815f1982015360011901535f611f21565b836004919c95989c019b838d51818160121c165183538181600c1c16516001840153818160061c1651858401531651858201530196939a611ef9565b634e487b7160e01b5f52601160045260245ffd5b50604051611fac816119dc565b5f81529056fea26469706673582212200c8dec221757e3d7947ee7c5abf1d6ae9b356ee240984b492ed7930cfbef974464736f6c63430008180033","linkReferences":{}},"methodIdentifiers":{"UPDATE_COOLDOWN()":"9d5739e7","approve(address,uint256)":"095ea7b3","balanceOf(address)":"70a08231","getApproved(uint256)":"081812fc","getScore(address)":"d47875d0","getTier(uint16)":"576c3de7","getTokenId(address)":"f1537686","isApprovedForAll(address,address)":"e985e9c5","mintScore(address)":"13d4d4bd","name()":"06fdde03","oracle()":"7dc0d1d0","owner()":"8da5cb5b","ownerOf(uint256)":"6352211e","renounceOwnership()":"715018a6","safeTransferFrom(address,address,uint256)":"42842e0e","safeTransferFrom(address,address,uint256,bytes)":"b88d4fde","setApprovalForAll(address,bool)":"a22cb465","setOracle(address)":"7adbf973","supportsInterface(bytes4)":"01ffc9a7","symbol()":"95d89b41","tokenURI(uint256)":"c87b56dd","transferFrom(address,address,uint256)":"23b872dd","transferOwnership(address)":"f2fde38b","updateScore(uint256,uint16,bool)":"b4f535d1","walletToTokenId(address)":"9c2806c7"},"id":55}